{
  "contractName": "Election",
  "abi": [
    {
      "inputs": [],
      "stateMutability": "nonpayable",
      "type": "constructor"
    },
    {
      "anonymous": false,
      "inputs": [
        {
          "indexed": false,
          "internalType": "address",
          "name": "_voterAddress",
          "type": "address"
        }
      ],
      "name": "voteCasted",
      "type": "event"
    },
    {
      "anonymous": false,
      "inputs": [
        {
          "indexed": false,
          "internalType": "address",
          "name": "_voterAddress",
          "type": "address"
        }
      ],
      "name": "voterRegistered",
      "type": "event"
    },
    {
      "inputs": [],
      "name": "admin",
      "outputs": [
        {
          "internalType": "address",
          "name": "",
          "type": "address"
        }
      ],
      "stateMutability": "view",
      "type": "function"
    },
    {
      "inputs": [
        {
          "internalType": "uint256",
          "name": "",
          "type": "uint256"
        }
      ],
      "name": "candidates",
      "outputs": [
        {
          "internalType": "uint256",
          "name": "candidateId",
          "type": "uint256"
        },
        {
          "internalType": "string",
          "name": "name",
          "type": "string"
        }
      ],
      "stateMutability": "view",
      "type": "function"
    },
    {
      "inputs": [],
      "name": "candidatesCount",
      "outputs": [
        {
          "internalType": "uint256",
          "name": "",
          "type": "uint256"
        }
      ],
      "stateMutability": "view",
      "type": "function"
    },
    {
      "inputs": [],
      "name": "endTime",
      "outputs": [
        {
          "internalType": "uint256",
          "name": "",
          "type": "uint256"
        }
      ],
      "stateMutability": "view",
      "type": "function"
    },
    {
      "inputs": [],
      "name": "startTime",
      "outputs": [
        {
          "internalType": "uint256",
          "name": "",
          "type": "uint256"
        }
      ],
      "stateMutability": "view",
      "type": "function"
    },
    {
      "inputs": [],
      "name": "topic",
      "outputs": [
        {
          "internalType": "string",
          "name": "",
          "type": "string"
        }
      ],
      "stateMutability": "view",
      "type": "function"
    },
    {
      "inputs": [],
      "name": "isAdmin",
      "outputs": [
        {
          "internalType": "bool",
          "name": "",
          "type": "bool"
        }
      ],
      "stateMutability": "view",
      "type": "function"
    },
    {
      "inputs": [],
      "name": "isVoterRegistered",
      "outputs": [
        {
          "internalType": "bool",
          "name": "",
          "type": "bool"
        }
      ],
      "stateMutability": "view",
      "type": "function"
    },
    {
      "inputs": [],
      "name": "getCurrentVoter",
      "outputs": [
        {
          "internalType": "address",
          "name": "",
          "type": "address"
        },
        {
          "internalType": "string",
          "name": "",
          "type": "string"
        },
        {
          "internalType": "bool",
          "name": "",
          "type": "bool"
        },
        {
          "internalType": "bool",
          "name": "",
          "type": "bool"
        },
        {
          "internalType": "uint256",
          "name": "",
          "type": "uint256"
        }
      ],
      "stateMutability": "view",
      "type": "function"
    },
    {
      "inputs": [
        {
          "internalType": "string",
          "name": "_name",
          "type": "string"
        }
      ],
      "name": "addVoter",
      "outputs": [],
      "stateMutability": "nonpayable",
      "type": "function"
    },
    {
      "inputs": [
        {
          "internalType": "uint256",
          "name": "_candidateId",
          "type": "uint256"
        }
      ],
      "name": "vote",
      "outputs": [],
      "stateMutability": "nonpayable",
      "type": "function"
    },
    {
      "inputs": [
        {
          "internalType": "uint256",
          "name": "_candidateId",
          "type": "uint256"
        }
      ],
      "name": "getVoteCountFor",
      "outputs": [
        {
          "internalType": "uint256",
          "name": "",
          "type": "uint256"
        },
        {
          "internalType": "string",
          "name": "",
          "type": "string"
        }
      ],
      "stateMutability": "view",
      "type": "function"
    },
    {
      "inputs": [],
      "name": "getWinningCandidate",
      "outputs": [
        {
          "internalType": "uint256",
          "name": "",
          "type": "uint256"
        },
        {
          "internalType": "string",
          "name": "",
          "type": "string"
        },
        {
          "internalType": "uint256",
          "name": "",
          "type": "uint256"
        }
      ],
      "stateMutability": "view",
      "type": "function"
    }
  ],
  "bytecode": "0x60806040523480156200001157600080fd5b50336000806101000a81548173ffffffffffffffffffffffffffffffffffffffff021916908373ffffffffffffffffffffffffffffffffffffffff1602179055504260028190555061012c6002546200006b9190620003c6565b600381905550604051806060016040528060218152602001620016026021913960019080519060200190620000a2929190620002dd565b506040518060400160405280600181526020016040518060400160405280600c81526020017f526168756c2047616e646869000000000000000000000000000000000000000081525081525060066000600181526020019081526020016000206000820151816000015560208201518160010190805190602001906200012a929190620002dd565b509050506040518060400160405280600281526020016040518060400160405280600d81526020017f4e6172656e647261204d6f6469000000000000000000000000000000000000008152508152506006600060028152602001908152602001600020600082015181600001556020820151816001019080519060200190620001b5929190620002dd565b509050506040518060400160405280600381526020016040518060400160405280600f81526020017f417276696e64204b656a726977616c0000000000000000000000000000000000815250815250600660006003815260200190815260200160002060008201518160000155602082015181600101908051906020019062000240929190620002dd565b509050506040518060400160405280600481526020016040518060400160405280600e81526020017f416b68696c6573682059616461760000000000000000000000000000000000008152508152506006600060048152602001908152602001600020600082015181600001556020820151816001019080519060200190620002cb929190620002dd565b50905050600460058190555062000488565b828054620002eb9062000452565b90600052602060002090601f0160209004810192826200030f57600085556200035b565b82601f106200032a57805160ff19168380011785556200035b565b828001600101855582156200035b579182015b828111156200035a5782518255916020019190600101906200033d565b5b5090506200036a91906200036e565b5090565b5b80821115620003895760008160009055506001016200036f565b5090565b6000819050919050565b7f4e487b7100000000000000000000000000000000000000000000000000000000600052601160045260246000fd5b6000620003d3826200038d565b9150620003e0836200038d565b9250827fffffffffffffffffffffffffffffffffffffffffffffffffffffffffffffffff0382111562000418576200041762000397565b5b828201905092915050565b7f4e487b7100000000000000000000000000000000000000000000000000000000600052602260045260246000fd5b600060028204905060018216806200046b57607f821691505b6020821081141562000482576200048162000423565b5b50919050565b61116a80620004986000396000f3fe608060405234801561001057600080fd5b50600436106100cf5760003560e01c806378e979251161008c578063b6db75a011610066578063b6db75a014610208578063bf63a57714610226578063f851a44014610244578063f927cc2914610262576100cf565b806378e979251461019d5780638dc2755c146101bb578063aca84892146101ec576100cf565b80630121b93f146100d45780632d35a8a2146100f05780633197cbb61461010e5780633477ee2e1461012c57806360dc22ee1461015d578063650e4b031461017b575b600080fd5b6100ee60048036038101906100e99190610c71565b610282565b005b6100f8610448565b6040516101059190610cad565b60405180910390f35b61011661044e565b6040516101239190610cad565b60405180910390f35b61014660048036038101906101419190610c71565b610454565b604051610154929190610d61565b60405180910390f35b610165610500565b6040516101729190610dac565b60405180910390f35b610183610557565b604051610194959493929190610e08565b60405180910390f35b6101a5610700565b6040516101b29190610cad565b60405180910390f35b6101d560048036038101906101d09190610c71565b610706565b6040516101e3929190610d61565b60405180910390f35b61020660048036038101906102019190610f97565b6107d7565b005b61021061095d565b60405161021d9190610dac565b60405180910390f35b61022e6109b4565b60405161023b9190610fe0565b60405180910390f35b61024c610a42565b6040516102599190611002565b60405180910390f35b61026a610a66565b6040516102799392919061101d565b60405180910390f35b600860003373ffffffffffffffffffffffffffffffffffffffff1673ffffffffffffffffffffffffffffffffffffffff16815260200190815260200160002060020160019054906101000a900460ff166102db57600080fd5b60035442106102e957600080fd5b600860003373ffffffffffffffffffffffffffffffffffffffff1673ffffffffffffffffffffffffffffffffffffffff16815260200190815260200160002060020160009054906101000a900460ff161561034357600080fd5b6004600082815260200190815260200160002060008154809291906103679061108a565b91905055506001600860003373ffffffffffffffffffffffffffffffffffffffff1673ffffffffffffffffffffffffffffffffffffffff16815260200190815260200160002060020160006101000a81548160ff02191690831515021790555080600860003373ffffffffffffffffffffffffffffffffffffffff1673ffffffffffffffffffffffffffffffffffffffff168152602001908152602001600020600301819055507f7fe1f3a58eee874cedc684b4668fe1a8e0762aba9fb2f44a7205c15d6a04a95c3360405161043d9190611002565b60405180910390a150565b60055481565b60035481565b600660205280600052604060002060009150905080600001549080600101805461047d90611102565b80601f01602080910402602001604051908101604052809291908181526020018280546104a990611102565b80156104f65780601f106104cb576101008083540402835291602001916104f6565b820191906000526020600020905b8154815290600101906020018083116104d957829003601f168201915b5050505050905082565b6000600860003373ffffffffffffffffffffffffffffffffffffffff1673ffffffffffffffffffffffffffffffffffffffff16815260200190815260200160002060020160019054906101000a900460ff16905090565b60006060600080600080600860003373ffffffffffffffffffffffffffffffffffffffff1673ffffffffffffffffffffffffffffffffffffffff1681526020019081526020016000206040518060a00160405290816000820160009054906101000a900473ffffffffffffffffffffffffffffffffffffffff1673ffffffffffffffffffffffffffffffffffffffff1673ffffffffffffffffffffffffffffffffffffffff16815260200160018201805461061190611102565b80601f016020809104026020016040519081016040528092919081815260200182805461063d90611102565b801561068a5780601f1061065f5761010080835404028352916020019161068a565b820191906000526020600020905b81548152906001019060200180831161066d57829003601f168201915b505050505081526020016002820160009054906101000a900460ff161515151581526020016002820160019054906101000a900460ff1615151515815260200160038201548152505090508060000151816020015182604001518360600151846080015195509550955095509550509091929394565b60025481565b60006060600354421161071857600080fd5b60046000848152602001908152602001600020546006600085815260200190815260200160002060010180805461074e90611102565b80601f016020809104026020016040519081016040528092919081815260200182805461077a90611102565b80156107c75780601f1061079c576101008083540402835291602001916107c7565b820191906000526020600020905b8154815290600101906020018083116107aa57829003601f168201915b5050505050905091509150915091565b600760008154809291906107ea9061108a565b91905055506040518060a001604052803373ffffffffffffffffffffffffffffffffffffffff1681526020018281526020016000151581526020016001151581526020016000815250600860003373ffffffffffffffffffffffffffffffffffffffff1673ffffffffffffffffffffffffffffffffffffffff16815260200190815260200160002060008201518160000160006101000a81548173ffffffffffffffffffffffffffffffffffffffff021916908373ffffffffffffffffffffffffffffffffffffffff16021790555060208201518160010190805190602001906108d5929190610b84565b5060408201518160020160006101000a81548160ff02191690831515021790555060608201518160020160016101000a81548160ff021916908315150217905550608082015181600301559050507f387e3d20b36ce3254acb134e913909d19062c2c475ffa1734569bc795869da10336040516109529190611002565b60405180910390a150565b60008060009054906101000a900473ffffffffffffffffffffffffffffffffffffffff1673ffffffffffffffffffffffffffffffffffffffff163373ffffffffffffffffffffffffffffffffffffffff1614905090565b600180546109c190611102565b80601f01602080910402602001604051908101604052809291908181526020018280546109ed90611102565b8015610a3a5780601f10610a0f57610100808354040283529160200191610a3a565b820191906000526020600020905b815481529060010190602001808311610a1d57829003601f168201915b505050505081565b60008054906101000a900473ffffffffffffffffffffffffffffffffffffffff1681565b6000606060006003544211610a7a57600080fd5b60008060005b600554811015610ad2576004600082815260200190815260200160002054831015610abf57600460008281526020019081526020016000205492508091505b8080610aca9061108a565b915050610a80565b50806006600083815260200190815260200160002060010183818054610af790611102565b80601f0160208091040260200160405190810160405280929190818152602001828054610b2390611102565b8015610b705780601f10610b4557610100808354040283529160200191610b70565b820191906000526020600020905b815481529060010190602001808311610b5357829003601f168201915b505050505091509450945094505050909192565b828054610b9090611102565b90600052602060002090601f016020900481019282610bb25760008555610bf9565b82601f10610bcb57805160ff1916838001178555610bf9565b82800160010185558215610bf9579182015b82811115610bf8578251825591602001919060010190610bdd565b5b509050610c069190610c0a565b5090565b5b80821115610c23576000816000905550600101610c0b565b5090565b6000604051905090565b600080fd5b600080fd5b6000819050919050565b610c4e81610c3b565b8114610c5957600080fd5b50565b600081359050610c6b81610c45565b92915050565b600060208284031215610c8757610c86610c31565b5b6000610c9584828501610c5c565b91505092915050565b610ca781610c3b565b82525050565b6000602082019050610cc26000830184610c9e565b92915050565b600081519050919050565b600082825260208201905092915050565b60005b83811015610d02578082015181840152602081019050610ce7565b83811115610d11576000848401525b50505050565b6000601f19601f8301169050919050565b6000610d3382610cc8565b610d3d8185610cd3565b9350610d4d818560208601610ce4565b610d5681610d17565b840191505092915050565b6000604082019050610d766000830185610c9e565b8181036020830152610d888184610d28565b90509392505050565b60008115159050919050565b610da681610d91565b82525050565b6000602082019050610dc16000830184610d9d565b92915050565b600073ffffffffffffffffffffffffffffffffffffffff82169050919050565b6000610df282610dc7565b9050919050565b610e0281610de7565b82525050565b600060a082019050610e1d6000830188610df9565b8181036020830152610e2f8187610d28565b9050610e3e6040830186610d9d565b610e4b6060830185610d9d565b610e586080830184610c9e565b9695505050505050565b600080fd5b600080fd5b7f4e487b7100000000000000000000000000000000000000000000000000000000600052604160045260246000fd5b610ea482610d17565b810181811067ffffffffffffffff82111715610ec357610ec2610e6c565b5b80604052505050565b6000610ed6610c27565b9050610ee28282610e9b565b919050565b600067ffffffffffffffff821115610f0257610f01610e6c565b5b610f0b82610d17565b9050602081019050919050565b82818337600083830152505050565b6000610f3a610f3584610ee7565b610ecc565b905082815260208101848484011115610f5657610f55610e67565b5b610f61848285610f18565b509392505050565b600082601f830112610f7e57610f7d610e62565b5b8135610f8e848260208601610f27565b91505092915050565b600060208284031215610fad57610fac610c31565b5b600082013567ffffffffffffffff811115610fcb57610fca610c36565b5b610fd784828501610f69565b91505092915050565b60006020820190508181036000830152610ffa8184610d28565b905092915050565b60006020820190506110176000830184610df9565b92915050565b60006060820190506110326000830186610c9e565b81810360208301526110448185610d28565b90506110536040830184610c9e565b949350505050565b7f4e487b7100000000000000000000000000000000000000000000000000000000600052601160045260246000fd5b600061109582610c3b565b91507fffffffffffffffffffffffffffffffffffffffffffffffffffffffffffffffff8214156110c8576110c761105b565b5b600182019050919050565b7f4e487b7100000000000000000000000000000000000000000000000000000000600052602260045260246000fd5b6000600282049050600182168061111a57607f821691505b6020821081141561112e5761112d6110d3565b5b5091905056fea2646970667358221220a403baec2d11908f7a8a6ec6b919bcc2525bd1fbcfa1fd84cfd065f9e39f000e64736f6c634300080a003357686f2073686f756c6420626520746865205072696d65204d696e69737465723f",
  "immutableReferences": {},
  "source": "pragma solidity ^0.8.0;\r\n\r\n// SPDX-License-Identifier: MIT\r\n\r\n\r\ncontract Election {\r\n\r\n  address public admin;\r\n  string public topic;\r\n  uint public startTime;\r\n  uint public endTime;\r\n  struct Candidate {\r\n    uint candidateId; // candidateId starts from index 1\r\n    string name;\r\n  }\r\n  mapping(uint => uint) private voteCount;\r\n  uint public candidatesCount;\r\n  mapping(uint => Candidate) public candidates;\r\n  struct Voter {\r\n    address voterAddress;\r\n    string name;\r\n    bool voted;\r\n    bool registered; // to check if this voter has registered\r\n    uint candidateId;\r\n  }\r\n  uint private votersCount;\r\n  mapping(address => Voter) private voters;\r\n\r\n  constructor()  {\r\n    admin = msg.sender;\r\n    startTime = block.timestamp;\r\n    endTime = startTime + 5 minutes;\r\n    topic = 'Who should be the Prime Minister?';\r\n    candidates[1] = Candidate(1, 'Rahul Gandhi');\r\n    candidates[2] = Candidate(2, 'Narendra Modi');\r\n    candidates[3] = Candidate(3, 'Arvind Kejriwal');\r\n    candidates[4] = Candidate(4, 'Akhilesh Yadav');\r\n    candidatesCount = 4;\r\n  }\r\n\r\n  modifier adminOnly() {\r\n    require(admin == msg.sender);\r\n    _;\r\n  }\r\n\r\n  modifier registeredVotersOnly() {\r\n    require(voters[msg.sender].registered);\r\n    _;\r\n  }\r\n\r\n  modifier withinTimeLimit() {\r\n    require(block.timestamp < endTime);\r\n    _;\r\n  }\r\n\r\n  modifier afterTimeLimit() {\r\n    require(block.timestamp > endTime);\r\n    _;\r\n  }\r\n\r\n  event voterRegistered(address _voterAddress);\r\n\r\n  event voteCasted(address _voterAddress);\r\n\r\n  function isAdmin() public view returns(bool) {\r\n    return (msg.sender == admin);\r\n  }\r\n\r\n  function isVoterRegistered() public view returns(bool) {\r\n    return (voters[msg.sender].registered);\r\n  }\r\n\r\n  function getCurrentVoter() public view returns (address, string memory, bool, bool, uint) {\r\n    Voter memory voter = voters[msg.sender];\r\n    return(voter.voterAddress, voter.name, voter.voted, voter.registered, voter.candidateId);\r\n  }\r\n\r\n  function addVoter(string memory _name) public {\r\n    votersCount++;\r\n    voters[msg.sender] = Voter(msg.sender, _name, false, true, 0);\r\n    emit voterRegistered(msg.sender);\r\n  }\r\n\r\n  // main voting function takes your selected candidate id and increments their vote count \r\n  function vote(uint _candidateId) public registeredVotersOnly withinTimeLimit{\r\n    require(!voters[msg.sender].voted);\r\n    voteCount[_candidateId]++;\r\n    voters[msg.sender].voted = true;\r\n    voters[msg.sender].candidateId = _candidateId;\r\n    emit voteCasted(msg.sender);\r\n  }\r\n\r\n  function getVoteCountFor(uint _candidateId) public view afterTimeLimit returns(uint, string memory) {\r\n    return (voteCount[_candidateId], candidates[_candidateId].name);\r\n  }\r\n\r\n  // returns (id, name, voteCount) of the winning candidate\r\n  function getWinningCandidate() public view afterTimeLimit returns (uint, string memory, uint) {\r\n    uint maxVote = 0;\r\n    uint maxVoteCandidateId = 0;\r\n    for(uint i = 0; i<candidatesCount; i++) {\r\n      if(maxVote < voteCount[i]) {\r\n        maxVote = voteCount[i];\r\n        maxVoteCandidateId = i;\r\n      }\r\n    }  \r\n    return (maxVoteCandidateId, candidates[maxVoteCandidateId].name, maxVote);\r\n  }\r\n}\r\n",
  "sourcePath": "D:\\Programming\\blockchain\\blockchain-voting\\src\\contracts\\Election.sol",
  "compiler": {
    "name": "solc",
    "version": "0.8.10+commit.fc410830.Emscripten.clang"
  },
  "schemaVersion": "3.4.3",
  "updatedAt": "2021-12-10T06:23:19.516Z",
  "devdoc": {
    "kind": "dev",
    "methods": {},
    "version": 1
  },
  "userdoc": {
    "kind": "user",
    "methods": {},
    "version": 1
  }
}