{
  "contractName": "Election",
  "abi": [
    {
      "inputs": [],
      "stateMutability": "nonpayable",
      "type": "constructor"
    },
    {
      "anonymous": false,
      "inputs": [
        {
          "indexed": false,
          "internalType": "address",
          "name": "_voterAddress",
          "type": "address"
        }
      ],
      "name": "voteCasted",
      "type": "event"
    },
    {
      "anonymous": false,
      "inputs": [
        {
          "indexed": false,
          "internalType": "address",
          "name": "_voterAddress",
          "type": "address"
        }
      ],
      "name": "voterRegistered",
      "type": "event"
    },
    {
      "inputs": [],
      "name": "admin",
      "outputs": [
        {
          "internalType": "address",
          "name": "",
          "type": "address"
        }
      ],
      "stateMutability": "view",
      "type": "function"
    },
    {
      "inputs": [
        {
          "internalType": "uint256",
          "name": "",
          "type": "uint256"
        }
      ],
      "name": "candidates",
      "outputs": [
        {
          "internalType": "uint256",
          "name": "candidateId",
          "type": "uint256"
        },
        {
          "internalType": "string",
          "name": "name",
          "type": "string"
        }
      ],
      "stateMutability": "view",
      "type": "function"
    },
    {
      "inputs": [],
      "name": "candidatesCount",
      "outputs": [
        {
          "internalType": "uint256",
          "name": "",
          "type": "uint256"
        }
      ],
      "stateMutability": "view",
      "type": "function"
    },
    {
      "inputs": [],
      "name": "endTime",
      "outputs": [
        {
          "internalType": "uint256",
          "name": "",
          "type": "uint256"
        }
      ],
      "stateMutability": "view",
      "type": "function"
    },
    {
      "inputs": [],
      "name": "startTime",
      "outputs": [
        {
          "internalType": "uint256",
          "name": "",
          "type": "uint256"
        }
      ],
      "stateMutability": "view",
      "type": "function"
    },
    {
      "inputs": [],
      "name": "topic",
      "outputs": [
        {
          "internalType": "string",
          "name": "",
          "type": "string"
        }
      ],
      "stateMutability": "view",
      "type": "function"
    },
    {
      "inputs": [],
      "name": "isAdmin",
      "outputs": [
        {
          "internalType": "bool",
          "name": "",
          "type": "bool"
        }
      ],
      "stateMutability": "view",
      "type": "function"
    },
    {
      "inputs": [],
      "name": "isVoterRegistered",
      "outputs": [
        {
          "internalType": "bool",
          "name": "",
          "type": "bool"
        }
      ],
      "stateMutability": "view",
      "type": "function"
    },
    {
      "inputs": [],
      "name": "getCurrentVoter",
      "outputs": [
        {
          "internalType": "address",
          "name": "",
          "type": "address"
        },
        {
          "internalType": "string",
          "name": "",
          "type": "string"
        },
        {
          "internalType": "bool",
          "name": "",
          "type": "bool"
        },
        {
          "internalType": "bool",
          "name": "",
          "type": "bool"
        },
        {
          "internalType": "uint256",
          "name": "",
          "type": "uint256"
        }
      ],
      "stateMutability": "view",
      "type": "function"
    },
    {
      "inputs": [
        {
          "internalType": "string",
          "name": "_name",
          "type": "string"
        }
      ],
      "name": "addVoter",
      "outputs": [],
      "stateMutability": "nonpayable",
      "type": "function"
    },
    {
      "inputs": [
        {
          "internalType": "uint256",
          "name": "_candidateId",
          "type": "uint256"
        }
      ],
      "name": "vote",
      "outputs": [],
      "stateMutability": "nonpayable",
      "type": "function"
    },
    {
      "inputs": [
        {
          "internalType": "uint256",
          "name": "_candidateId",
          "type": "uint256"
        }
      ],
      "name": "getVoteCountFor",
      "outputs": [
        {
          "internalType": "uint256",
          "name": "",
          "type": "uint256"
        },
        {
          "internalType": "string",
          "name": "",
          "type": "string"
        }
      ],
      "stateMutability": "view",
      "type": "function"
    },
    {
      "inputs": [],
      "name": "getWinningCandidate",
      "outputs": [
        {
          "internalType": "uint256",
          "name": "",
          "type": "uint256"
        },
        {
          "internalType": "string",
          "name": "",
          "type": "string"
        },
        {
          "internalType": "uint256",
          "name": "",
          "type": "uint256"
        }
      ],
      "stateMutability": "view",
      "type": "function"
    }
  ],
  "bytecode": "0x60806040523480156200001157600080fd5b50336000806101000a81548173ffffffffffffffffffffffffffffffffffffffff021916908373ffffffffffffffffffffffffffffffffffffffff1602179055504260028190555061012c6002546200006b91906200038d565b600381905550604051806060016040528060218152602001620015b46021913960019080519060200190620000a2929190620002dd565b506040518060400160405280600181526020016040518060400160405280600c81526020017f526168756c2047616e646869000000000000000000000000000000000000000081525081525060066000600181526020019081526020016000206000820151816000015560208201518160010190805190602001906200012a929190620002dd565b509050506040518060400160405280600281526020016040518060400160405280600d81526020017f4e6172656e647261204d6f6469000000000000000000000000000000000000008152508152506006600060028152602001908152602001600020600082015181600001556020820151816001019080519060200190620001b5929190620002dd565b509050506040518060400160405280600381526020016040518060400160405280600f81526020017f417276696e64204b656a726977616c0000000000000000000000000000000000815250815250600660006003815260200190815260200160002060008201518160000155602082015181600101908051906020019062000240929190620002dd565b509050506040518060400160405280600481526020016040518060400160405280600e81526020017f416b68696c6573682059616461760000000000000000000000000000000000008152508152506006600060048152602001908152602001600020600082015181600001556020820151816001019080519060200190620002cb929190620002dd565b50905050600460058190555062000488565b828054620002eb90620003f4565b90600052602060002090601f0160209004810192826200030f57600085556200035b565b82601f106200032a57805160ff19168380011785556200035b565b828001600101855582156200035b579182015b828111156200035a5782518255916020019190600101906200033d565b5b5090506200036a91906200036e565b5090565b5b80821115620003895760008160009055506001016200036f565b5090565b60006200039a82620003ea565b9150620003a783620003ea565b9250827fffffffffffffffffffffffffffffffffffffffffffffffffffffffffffffffff03821115620003df57620003de6200042a565b5b828201905092915050565b6000819050919050565b600060028204905060018216806200040d57607f821691505b6020821081141562000424576200042362000459565b5b50919050565b7f4e487b7100000000000000000000000000000000000000000000000000000000600052601160045260246000fd5b7f4e487b7100000000000000000000000000000000000000000000000000000000600052602260045260246000fd5b61111c80620004986000396000f3fe608060405234801561001057600080fd5b50600436106100cf5760003560e01c806378e979251161008c578063b6db75a011610066578063b6db75a014610208578063bf63a57714610226578063f851a44014610244578063f927cc2914610262576100cf565b806378e979251461019d5780638dc2755c146101bb578063aca84892146101ec576100cf565b80630121b93f146100d45780632d35a8a2146100f05780633197cbb61461010e5780633477ee2e1461012c57806360dc22ee1461015d578063650e4b031461017b575b600080fd5b6100ee60048036038101906100e99190610ce5565b610282565b005b6100f8610448565b6040516101059190610e26565b60405180910390f35b61011661044e565b6040516101239190610e26565b60405180910390f35b61014660048036038101906101419190610ce5565b610454565b604051610154929190610e41565b60405180910390f35b610165610500565b6040516101729190610de9565b60405180910390f35b610183610557565b604051610194959493929190610d8f565b60405180910390f35b6101a5610700565b6040516101b29190610e26565b60405180910390f35b6101d560048036038101906101d09190610ce5565b610706565b6040516101e3929190610e41565b60405180910390f35b61020660048036038101906102019190610ca4565b6107d7565b005b61021061095d565b60405161021d9190610de9565b60405180910390f35b61022e6109b4565b60405161023b9190610e04565b60405180910390f35b61024c610a42565b6040516102599190610d74565b60405180910390f35b61026a610a66565b60405161027993929190610e71565b60405180910390f35b600860003373ffffffffffffffffffffffffffffffffffffffff1673ffffffffffffffffffffffffffffffffffffffff16815260200190815260200160002060020160019054906101000a900460ff166102db57600080fd5b60035442106102e957600080fd5b600860003373ffffffffffffffffffffffffffffffffffffffff1673ffffffffffffffffffffffffffffffffffffffff16815260200190815260200160002060020160009054906101000a900460ff161561034357600080fd5b60046000828152602001908152602001600020600081548092919061036790610fe8565b91905055506001600860003373ffffffffffffffffffffffffffffffffffffffff1673ffffffffffffffffffffffffffffffffffffffff16815260200190815260200160002060020160006101000a81548160ff02191690831515021790555080600860003373ffffffffffffffffffffffffffffffffffffffff1673ffffffffffffffffffffffffffffffffffffffff168152602001908152602001600020600301819055507f7fe1f3a58eee874cedc684b4668fe1a8e0762aba9fb2f44a7205c15d6a04a95c3360405161043d9190610d74565b60405180910390a150565b60055481565b60035481565b600660205280600052604060002060009150905080600001549080600101805461047d90610fb6565b80601f01602080910402602001604051908101604052809291908181526020018280546104a990610fb6565b80156104f65780601f106104cb576101008083540402835291602001916104f6565b820191906000526020600020905b8154815290600101906020018083116104d957829003601f168201915b5050505050905082565b6000600860003373ffffffffffffffffffffffffffffffffffffffff1673ffffffffffffffffffffffffffffffffffffffff16815260200190815260200160002060020160019054906101000a900460ff16905090565b60006060600080600080600860003373ffffffffffffffffffffffffffffffffffffffff1673ffffffffffffffffffffffffffffffffffffffff1681526020019081526020016000206040518060a00160405290816000820160009054906101000a900473ffffffffffffffffffffffffffffffffffffffff1673ffffffffffffffffffffffffffffffffffffffff1673ffffffffffffffffffffffffffffffffffffffff16815260200160018201805461061190610fb6565b80601f016020809104026020016040519081016040528092919081815260200182805461063d90610fb6565b801561068a5780601f1061065f5761010080835404028352916020019161068a565b820191906000526020600020905b81548152906001019060200180831161066d57829003601f168201915b505050505081526020016002820160009054906101000a900460ff161515151581526020016002820160019054906101000a900460ff1615151515815260200160038201548152505090508060000151816020015182604001518360600151846080015195509550955095509550509091929394565b60025481565b60006060600354421161071857600080fd5b60046000848152602001908152602001600020546006600085815260200190815260200160002060010180805461074e90610fb6565b80601f016020809104026020016040519081016040528092919081815260200182805461077a90610fb6565b80156107c75780601f1061079c576101008083540402835291602001916107c7565b820191906000526020600020905b8154815290600101906020018083116107aa57829003601f168201915b5050505050905091509150915091565b600760008154809291906107ea90610fe8565b91905055506040518060a001604052803373ffffffffffffffffffffffffffffffffffffffff1681526020018281526020016000151581526020016001151581526020016000815250600860003373ffffffffffffffffffffffffffffffffffffffff1673ffffffffffffffffffffffffffffffffffffffff16815260200190815260200160002060008201518160000160006101000a81548173ffffffffffffffffffffffffffffffffffffffff021916908373ffffffffffffffffffffffffffffffffffffffff16021790555060208201518160010190805190602001906108d5929190610b84565b5060408201518160020160006101000a81548160ff02191690831515021790555060608201518160020160016101000a81548160ff021916908315150217905550608082015181600301559050507f387e3d20b36ce3254acb134e913909d19062c2c475ffa1734569bc795869da10336040516109529190610d74565b60405180910390a150565b60008060009054906101000a900473ffffffffffffffffffffffffffffffffffffffff1673ffffffffffffffffffffffffffffffffffffffff163373ffffffffffffffffffffffffffffffffffffffff1614905090565b600180546109c190610fb6565b80601f01602080910402602001604051908101604052809291908181526020018280546109ed90610fb6565b8015610a3a5780601f10610a0f57610100808354040283529160200191610a3a565b820191906000526020600020905b815481529060010190602001808311610a1d57829003601f168201915b505050505081565b60008054906101000a900473ffffffffffffffffffffffffffffffffffffffff1681565b6000606060006003544211610a7a57600080fd5b60008060005b600554811015610ad2576004600082815260200190815260200160002054831015610abf57600460008281526020019081526020016000205492508091505b8080610aca90610fe8565b915050610a80565b50806006600083815260200190815260200160002060010183818054610af790610fb6565b80601f0160208091040260200160405190810160405280929190818152602001828054610b2390610fb6565b8015610b705780601f10610b4557610100808354040283529160200191610b70565b820191906000526020600020905b815481529060010190602001808311610b5357829003601f168201915b505050505091509450945094505050909192565b828054610b9090610fb6565b90600052602060002090601f016020900481019282610bb25760008555610bf9565b82601f10610bcb57805160ff1916838001178555610bf9565b82800160010185558215610bf9579182015b82811115610bf8578251825591602001919060010190610bdd565b5b509050610c069190610c0a565b5090565b5b80821115610c23576000816000905550600101610c0b565b5090565b6000610c3a610c3584610ee0565b610eaf565b905082815260208101848484011115610c5257600080fd5b610c5d848285610f74565b509392505050565b600082601f830112610c7657600080fd5b8135610c86848260208601610c27565b91505092915050565b600081359050610c9e816110cf565b92915050565b600060208284031215610cb657600080fd5b600082013567ffffffffffffffff811115610cd057600080fd5b610cdc84828501610c65565b91505092915050565b600060208284031215610cf757600080fd5b6000610d0584828501610c8f565b91505092915050565b610d1781610f2c565b82525050565b610d2681610f3e565b82525050565b6000610d3782610f10565b610d418185610f1b565b9350610d51818560208601610f83565b610d5a816110be565b840191505092915050565b610d6e81610f6a565b82525050565b6000602082019050610d896000830184610d0e565b92915050565b600060a082019050610da46000830188610d0e565b8181036020830152610db68187610d2c565b9050610dc56040830186610d1d565b610dd26060830185610d1d565b610ddf6080830184610d65565b9695505050505050565b6000602082019050610dfe6000830184610d1d565b92915050565b60006020820190508181036000830152610e1e8184610d2c565b905092915050565b6000602082019050610e3b6000830184610d65565b92915050565b6000604082019050610e566000830185610d65565b8181036020830152610e688184610d2c565b90509392505050565b6000606082019050610e866000830186610d65565b8181036020830152610e988185610d2c565b9050610ea76040830184610d65565b949350505050565b6000604051905081810181811067ffffffffffffffff82111715610ed657610ed561108f565b5b8060405250919050565b600067ffffffffffffffff821115610efb57610efa61108f565b5b601f19601f8301169050602081019050919050565b600081519050919050565b600082825260208201905092915050565b6000610f3782610f4a565b9050919050565b60008115159050919050565b600073ffffffffffffffffffffffffffffffffffffffff82169050919050565b6000819050919050565b82818337600083830152505050565b60005b83811015610fa1578082015181840152602081019050610f86565b83811115610fb0576000848401525b50505050565b60006002820490506001821680610fce57607f821691505b60208210811415610fe257610fe1611060565b5b50919050565b6000610ff382610f6a565b91507fffffffffffffffffffffffffffffffffffffffffffffffffffffffffffffffff82141561102657611025611031565b5b600182019050919050565b7f4e487b7100000000000000000000000000000000000000000000000000000000600052601160045260246000fd5b7f4e487b7100000000000000000000000000000000000000000000000000000000600052602260045260246000fd5b7f4e487b7100000000000000000000000000000000000000000000000000000000600052604160045260246000fd5b6000601f19601f8301169050919050565b6110d881610f6a565b81146110e357600080fd5b5056fea264697066735822122024d377024f9e7f864ea74e1545768af9753ece80a13a4009bfab680b0f2d2c0564736f6c6343000800003357686f2073686f756c6420626520746865205072696d65204d696e69737465723f",
  "immutableReferences": {},
  "source": "pragma solidity 0.8.0;\n\n\n// SPDX-License-Identifier: MIT\n\n\ncontract Election {\n\n  address public admin;\n  string public topic;\n  uint public startTime;\n  uint public endTime;\n  struct Candidate {\n    uint candidateId; // candidateId starts from index 1\n    string name;\n  }\n  mapping(uint => uint) private voteCount;\n  uint public candidatesCount;\n  mapping(uint => Candidate) public candidates;\n  struct Voter {\n    address voterAddress;\n    string name;\n    bool voted;\n    bool registered; // to check if this voter has registered\n    uint candidateId;\n  }\n  uint private votersCount;\n  mapping(address => Voter) private voters;\n\n  constructor()  {\n    admin = msg.sender;\n    startTime = block.timestamp;\n    endTime = startTime + 5 minutes;\n    topic = 'Who should be the Prime Minister?';\n    candidates[1] = Candidate(1, 'Rahul Gandhi');\n    candidates[2] = Candidate(2, 'Narendra Modi');\n    candidates[3] = Candidate(3, 'Arvind Kejriwal');\n    candidates[4] = Candidate(4, 'Akhilesh Yadav');\n    candidatesCount = 4;\n  }\n\n  modifier adminOnly() {\n    require(admin == msg.sender);\n    _;\n  }\n\n  modifier registeredVotersOnly() {\n    require(voters[msg.sender].registered);\n    _;\n  }\n\n  modifier withinTimeLimit() {\n    require(block.timestamp < endTime);\n    _;\n  }\n\n  modifier afterTimeLimit() {\n    require(block.timestamp > endTime);\n    _;\n  }\n\n  event voterRegistered(address _voterAddress);\n\n  event voteCasted(address _voterAddress);\n\n  function isAdmin() public view returns(bool) {\n    return (msg.sender == admin);\n  }\n\n  function isVoterRegistered() public view returns(bool) {\n    return (voters[msg.sender].registered);\n  }\n\n  function getCurrentVoter() public view returns (address, string memory, bool, bool, uint) {\n    Voter memory voter = voters[msg.sender];\n    return(voter.voterAddress, voter.name, voter.voted, voter.registered, voter.candidateId);\n  }\n\n  function addVoter(string memory _name) public {\n    votersCount++;\n    voters[msg.sender] = Voter(msg.sender, _name, false, true, 0);\n    emit voterRegistered(msg.sender);\n  }\n\n  // main voting function takes your selected candidate id and increments their vote count \n  function vote(uint _candidateId) public registeredVotersOnly withinTimeLimit{\n    require(!voters[msg.sender].voted);\n    voteCount[_candidateId]++;\n    voters[msg.sender].voted = true;\n    voters[msg.sender].candidateId = _candidateId;\n    emit voteCasted(msg.sender);\n  }\n\n  function getVoteCountFor(uint _candidateId) public view afterTimeLimit returns(uint, string memory) {\n    return (voteCount[_candidateId], candidates[_candidateId].name);\n  }\n\n  // returns (id, name, voteCount) of the winning candidate\n  function getWinningCandidate() public view afterTimeLimit returns (uint, string memory, uint) {\n    uint maxVote = 0;\n    uint maxVoteCandidateId = 0;\n    for(uint i = 0; i<candidatesCount; i++) {\n      if(maxVote < voteCount[i]) {\n        maxVote = voteCount[i];\n        maxVoteCandidateId = i;\n      }\n    }  \n    return (maxVoteCandidateId, candidates[maxVoteCandidateId].name, maxVote);\n  }\n}\n",
  "sourcePath": "D:\\my programs\\blockchain-voting-main\\blockchain-voting-main\\src\\contracts\\Election.sol",
  "compiler": {
    "name": "solc",
    "version": "0.8.0+commit.c7dfd78e.Emscripten.clang"
  },
  "schemaVersion": "3.4.16",
  "updatedAt": "2024-05-10T12:27:43.400Z",
  "devdoc": {
    "kind": "dev",
    "methods": {},
    "version": 1
  },
  "userdoc": {
    "kind": "user",
    "methods": {},
    "version": 1
  }
}