{
  "contractName": "TempContract",
  "abi": [
    {
      "inputs": [],
      "stateMutability": "nonpayable",
      "type": "constructor"
    },
    {
      "inputs": [
        {
          "internalType": "uint256",
          "name": "",
          "type": "uint256"
        }
      ],
      "name": "candidateDetails",
      "outputs": [
        {
          "internalType": "string",
          "name": "name",
          "type": "string"
        },
        {
          "internalType": "string",
          "name": "party",
          "type": "string"
        },
        {
          "internalType": "string",
          "name": "manifesto",
          "type": "string"
        },
        {
          "internalType": "uint256",
          "name": "voteCount",
          "type": "uint256"
        },
        {
          "internalType": "uint256",
          "name": "constituency",
          "type": "uint256"
        },
        {
          "internalType": "uint256",
          "name": "candidateId",
          "type": "uint256"
        }
      ],
      "stateMutability": "view",
      "type": "function",
      "constant": true
    },
    {
      "inputs": [],
      "name": "owner",
      "outputs": [
        {
          "internalType": "address",
          "name": "",
          "type": "address"
        }
      ],
      "stateMutability": "view",
      "type": "function",
      "constant": true
    },
    {
      "inputs": [
        {
          "internalType": "address",
          "name": "",
          "type": "address"
        }
      ],
      "name": "voterDetails",
      "outputs": [
        {
          "internalType": "address",
          "name": "voterAddress",
          "type": "address"
        },
        {
          "internalType": "string",
          "name": "name",
          "type": "string"
        },
        {
          "internalType": "string",
          "name": "aadhar",
          "type": "string"
        },
        {
          "internalType": "uint256",
          "name": "constituency",
          "type": "uint256"
        },
        {
          "internalType": "bool",
          "name": "hasVoted",
          "type": "bool"
        },
        {
          "internalType": "bool",
          "name": "isVerified",
          "type": "bool"
        }
      ],
      "stateMutability": "view",
      "type": "function",
      "constant": true
    },
    {
      "inputs": [
        {
          "internalType": "uint256",
          "name": "",
          "type": "uint256"
        }
      ],
      "name": "voters",
      "outputs": [
        {
          "internalType": "address",
          "name": "",
          "type": "address"
        }
      ],
      "stateMutability": "view",
      "type": "function",
      "constant": true
    },
    {
      "inputs": [],
      "name": "getOwner",
      "outputs": [
        {
          "internalType": "address",
          "name": "",
          "type": "address"
        }
      ],
      "stateMutability": "view",
      "type": "function",
      "constant": true
    },
    {
      "inputs": [
        {
          "internalType": "string",
          "name": "_name",
          "type": "string"
        },
        {
          "internalType": "string",
          "name": "_party",
          "type": "string"
        },
        {
          "internalType": "string",
          "name": "_manifesto",
          "type": "string"
        },
        {
          "internalType": "uint256",
          "name": "_constituency",
          "type": "uint256"
        }
      ],
      "name": "addCandidate",
      "outputs": [],
      "stateMutability": "nonpayable",
      "type": "function"
    },
    {
      "inputs": [],
      "name": "getCandidateNumber",
      "outputs": [
        {
          "internalType": "uint256",
          "name": "",
          "type": "uint256"
        }
      ],
      "stateMutability": "view",
      "type": "function",
      "constant": true
    },
    {
      "inputs": [
        {
          "internalType": "uint256",
          "name": "num",
          "type": "uint256"
        }
      ],
      "name": "getCandidateDetails",
      "outputs": [
        {
          "components": [
            {
              "internalType": "string",
              "name": "name",
              "type": "string"
            },
            {
              "internalType": "string",
              "name": "party",
              "type": "string"
            },
            {
              "internalType": "string",
              "name": "manifesto",
              "type": "string"
            },
            {
              "internalType": "uint256",
              "name": "voteCount",
              "type": "uint256"
            },
            {
              "internalType": "uint256",
              "name": "constituency",
              "type": "uint256"
            },
            {
              "internalType": "uint256",
              "name": "candidateId",
              "type": "uint256"
            }
          ],
          "internalType": "struct TempContract.Candidate",
          "name": "",
          "type": "tuple"
        }
      ],
      "stateMutability": "view",
      "type": "function",
      "constant": true
    },
    {
      "inputs": [
        {
          "internalType": "string",
          "name": "_name",
          "type": "string"
        },
        {
          "internalType": "string",
          "name": "_aadhar",
          "type": "string"
        },
        {
          "internalType": "uint256",
          "name": "_constituency",
          "type": "uint256"
        }
      ],
      "name": "requestVoter",
      "outputs": [],
      "stateMutability": "nonpayable",
      "type": "function"
    },
    {
      "inputs": [],
      "name": "getVoterCount",
      "outputs": [
        {
          "internalType": "uint256",
          "name": "",
          "type": "uint256"
        }
      ],
      "stateMutability": "view",
      "type": "function",
      "constant": true
    },
    {
      "inputs": [
        {
          "internalType": "address",
          "name": "_address",
          "type": "address"
        }
      ],
      "name": "verifyVoter",
      "outputs": [],
      "stateMutability": "nonpayable",
      "type": "function"
    },
    {
      "inputs": [
        {
          "internalType": "uint256",
          "name": "candidateId",
          "type": "uint256"
        }
      ],
      "name": "vote",
      "outputs": [],
      "stateMutability": "nonpayable",
      "type": "function"
    },
    {
      "inputs": [],
      "name": "startElection",
      "outputs": [],
      "stateMutability": "nonpayable",
      "type": "function"
    },
    {
      "inputs": [],
      "name": "endElection",
      "outputs": [],
      "stateMutability": "nonpayable",
      "type": "function"
    },
    {
      "inputs": [],
      "name": "getStart",
      "outputs": [
        {
          "internalType": "bool",
          "name": "",
          "type": "bool"
        }
      ],
      "stateMutability": "view",
      "type": "function",
      "constant": true
    },
    {
      "inputs": [],
      "name": "getEnd",
      "outputs": [
        {
          "internalType": "bool",
          "name": "",
          "type": "bool"
        }
      ],
      "stateMutability": "view",
      "type": "function",
      "constant": true
    }
  ],
  "bytecode": "0x608060405234801561001057600080fd5b50336000806101000a81548173ffffffffffffffffffffffffffffffffffffffff021916908373ffffffffffffffffffffffffffffffffffffffff160217905550600060018190555060006002819055506000600360006101000a81548160ff0219169083151502179055506000600360016101000a81548160ff021916908315150217905550611736806100a66000396000f3fe608060405234801561001057600080fd5b50600436106101005760003560e01c806362d73eb8116100975780639f05a36d116100665780639f05a36d1461027f578063c5292c671461029d578063d6aadfba146102bb578063da58c7d9146102d757610100565b806362d73eb81461021d5780637d9cf19614610227578063893d20e8146102435780638da5cb5b1461026157610100565b8063364dff25116100d3578063364dff251461018b5780635938750d146101a957806359f78468146101de5780636247e532146101e857610100565b80630121b93f1461010557806309bd09501461012157806311174a291461013d57806327f9fd501461015b575b600080fd5b61011f600480360381019061011a9190610fcd565b610307565b005b61013b60048036038101906101369190611058565b610393565b005b610145610449565b6040516101529190611094565b60405180910390f35b61017560048036038101906101709190610fcd565b610453565b60405161018291906111ee565b60405180910390f35b610193610654565b6040516101a09190611094565b60405180910390f35b6101c360048036038101906101be9190611058565b61065e565b6040516101d596959493929190611284565b60405180910390f35b6101e66107e4565b005b61020260048036038101906101fd9190610fcd565b610874565b604051610214969594939291906112f3565b60405180910390f35b610225610a48565b005b610241600480360381019061023c919061149e565b610ad8565b005b61024b610cb6565b6040516102589190611529565b60405180910390f35b610269610cdf565b6040516102769190611529565b60405180910390f35b610287610d03565b6040516102949190611544565b60405180910390f35b6102a5610d1a565b6040516102b29190611544565b60405180910390f35b6102d560048036038101906102d0919061155f565b610d31565b005b6102f160048036038101906102ec9190610fcd565b610e6b565b6040516102fe9190611529565b60405180910390f35b600160046000838152602001908152602001600020600301600082825461032e9190611649565b925050819055506001600660003373ffffffffffffffffffffffffffffffffffffffff1673ffffffffffffffffffffffffffffffffffffffff16815260200190815260200160002060040160006101000a81548160ff02191690831515021790555050565b60008054906101000a900473ffffffffffffffffffffffffffffffffffffffff1673ffffffffffffffffffffffffffffffffffffffff163373ffffffffffffffffffffffffffffffffffffffff16146103eb57600080fd5b6001600660008373ffffffffffffffffffffffffffffffffffffffff1673ffffffffffffffffffffffffffffffffffffffff16815260200190815260200160002060040160016101000a81548160ff02191690831515021790555050565b6000600254905090565b61045b610eaa565b600460008381526020019081526020016000206040518060c0016040529081600082018054610489906116ce565b80601f01602080910402602001604051908101604052809291908181526020018280546104b5906116ce565b80156105025780601f106104d757610100808354040283529160200191610502565b820191906000526020600020905b8154815290600101906020018083116104e557829003601f168201915b5050505050815260200160018201805461051b906116ce565b80601f0160208091040260200160405190810160405280929190818152602001828054610547906116ce565b80156105945780601f1061056957610100808354040283529160200191610594565b820191906000526020600020905b81548152906001019060200180831161057757829003601f168201915b505050505081526020016002820180546105ad906116ce565b80601f01602080910402602001604051908101604052809291908181526020018280546105d9906116ce565b80156106265780601f106105fb57610100808354040283529160200191610626565b820191906000526020600020905b81548152906001019060200180831161060957829003601f168201915b5050505050815260200160038201548152602001600482015481526020016005820154815250509050919050565b6000600154905090565b60066020528060005260406000206000915090508060000160009054906101000a900473ffffffffffffffffffffffffffffffffffffffff16908060010180546106a7906116ce565b80601f01602080910402602001604051908101604052809291908181526020018280546106d3906116ce565b80156107205780601f106106f557610100808354040283529160200191610720565b820191906000526020600020905b81548152906001019060200180831161070357829003601f168201915b505050505090806002018054610735906116ce565b80601f0160208091040260200160405190810160405280929190818152602001828054610761906116ce565b80156107ae5780601f10610783576101008083540402835291602001916107ae565b820191906000526020600020905b81548152906001019060200180831161079157829003601f168201915b5050505050908060030154908060040160009054906101000a900460ff16908060040160019054906101000a900460ff16905086565b60008054906101000a900473ffffffffffffffffffffffffffffffffffffffff1673ffffffffffffffffffffffffffffffffffffffff163373ffffffffffffffffffffffffffffffffffffffff161461083c57600080fd5b6001600360016101000a81548160ff0219169083151502179055506000600360006101000a81548160ff021916908315150217905550565b6004602052806000526040600020600091509050806000018054610897906116ce565b80601f01602080910402602001604051908101604052809291908181526020018280546108c3906116ce565b80156109105780601f106108e557610100808354040283529160200191610910565b820191906000526020600020905b8154815290600101906020018083116108f357829003601f168201915b505050505090806001018054610925906116ce565b80601f0160208091040260200160405190810160405280929190818152602001828054610951906116ce565b801561099e5780601f106109735761010080835404028352916020019161099e565b820191906000526020600020905b81548152906001019060200180831161098157829003601f168201915b5050505050908060020180546109b3906116ce565b80601f01602080910402602001604051908101604052809291908181526020018280546109df906116ce565b8015610a2c5780601f10610a0157610100808354040283529160200191610a2c565b820191906000526020600020905b815481529060010190602001808311610a0f57829003601f168201915b5050505050908060030154908060040154908060050154905086565b60008054906101000a900473ffffffffffffffffffffffffffffffffffffffff1673ffffffffffffffffffffffffffffffffffffffff163373ffffffffffffffffffffffffffffffffffffffff1614610aa057600080fd5b6001600360006101000a81548160ff0219169083151502179055506000600360016101000a81548160ff021916908315150217905550565b60006040518060c001604052803373ffffffffffffffffffffffffffffffffffffffff16815260200185815260200184815260200183815260200160001515815260200160001515815250905080600660003373ffffffffffffffffffffffffffffffffffffffff1673ffffffffffffffffffffffffffffffffffffffff16815260200190815260200160002060008201518160000160006101000a81548173ffffffffffffffffffffffffffffffffffffffff021916908373ffffffffffffffffffffffffffffffffffffffff1602179055506020820151816001019080519060200190610bc8929190610ee0565b506040820151816002019080519060200190610be5929190610ee0565b506060820151816003015560808201518160040160006101000a81548160ff02191690831515021790555060a08201518160040160016101000a81548160ff0219169083151502179055509050506005339080600181540180825580915050600190039060005260206000200160009091909190916101000a81548173ffffffffffffffffffffffffffffffffffffffff021916908373ffffffffffffffffffffffffffffffffffffffff160217905550600160026000828254610ca99190611649565b9250508190555050505050565b60008060009054906101000a900473ffffffffffffffffffffffffffffffffffffffff16905090565b60008054906101000a900473ffffffffffffffffffffffffffffffffffffffff1681565b6000600360019054906101000a900460ff16905090565b6000600360009054906101000a900460ff16905090565b60008054906101000a900473ffffffffffffffffffffffffffffffffffffffff1673ffffffffffffffffffffffffffffffffffffffff163373ffffffffffffffffffffffffffffffffffffffff1614610d8957600080fd5b60006040518060c00160405280868152602001858152602001848152602001600081526020018381526020016001548152509050806004600060015481526020019081526020016000206000820151816000019080519060200190610def929190610ee0565b506020820151816001019080519060200190610e0c929190610ee0565b506040820151816002019080519060200190610e29929190610ee0565b50606082015181600301556080820151816004015560a082015181600501559050506001806000828254610e5d9190611649565b925050819055505050505050565b60058181548110610e7b57600080fd5b906000526020600020016000915054906101000a900473ffffffffffffffffffffffffffffffffffffffff1681565b6040518060c001604052806060815260200160608152602001606081526020016000815260200160008152602001600081525090565b828054610eec906116ce565b90600052602060002090601f016020900481019282610f0e5760008555610f55565b82601f10610f2757805160ff1916838001178555610f55565b82800160010185558215610f55579182015b82811115610f54578251825591602001919060010190610f39565b5b509050610f629190610f66565b5090565b5b80821115610f7f576000816000905550600101610f67565b5090565b6000604051905090565b600080fd5b600080fd5b6000819050919050565b610faa81610f97565b8114610fb557600080fd5b50565b600081359050610fc781610fa1565b92915050565b600060208284031215610fe357610fe2610f8d565b5b6000610ff184828501610fb8565b91505092915050565b600073ffffffffffffffffffffffffffffffffffffffff82169050919050565b600061102582610ffa565b9050919050565b6110358161101a565b811461104057600080fd5b50565b6000813590506110528161102c565b92915050565b60006020828403121561106e5761106d610f8d565b5b600061107c84828501611043565b91505092915050565b61108e81610f97565b82525050565b60006020820190506110a96000830184611085565b92915050565b600081519050919050565b600082825260208201905092915050565b60005b838110156110e95780820151818401526020810190506110ce565b838111156110f8576000848401525b50505050565b6000601f19601f8301169050919050565b600061111a826110af565b61112481856110ba565b93506111348185602086016110cb565b61113d816110fe565b840191505092915050565b61115181610f97565b82525050565b600060c0830160008301518482036000860152611174828261110f565b9150506020830151848203602086015261118e828261110f565b915050604083015184820360408601526111a8828261110f565b91505060608301516111bd6060860182611148565b5060808301516111d06080860182611148565b5060a08301516111e360a0860182611148565b508091505092915050565b600060208201905081810360008301526112088184611157565b905092915050565b6112198161101a565b82525050565b600082825260208201905092915050565b600061123b826110af565b611245818561121f565b93506112558185602086016110cb565b61125e816110fe565b840191505092915050565b60008115159050919050565b61127e81611269565b82525050565b600060c0820190506112996000830189611210565b81810360208301526112ab8188611230565b905081810360408301526112bf8187611230565b90506112ce6060830186611085565b6112db6080830185611275565b6112e860a0830184611275565b979650505050505050565b600060c082019050818103600083015261130d8189611230565b905081810360208301526113218188611230565b905081810360408301526113358187611230565b90506113446060830186611085565b6113516080830185611085565b61135e60a0830184611085565b979650505050505050565b600080fd5b600080fd5b7f4e487b7100000000000000000000000000000000000000000000000000000000600052604160045260246000fd5b6113ab826110fe565b810181811067ffffffffffffffff821117156113ca576113c9611373565b5b80604052505050565b60006113dd610f83565b90506113e982826113a2565b919050565b600067ffffffffffffffff82111561140957611408611373565b5b611412826110fe565b9050602081019050919050565b82818337600083830152505050565b600061144161143c846113ee565b6113d3565b90508281526020810184848401111561145d5761145c61136e565b5b61146884828561141f565b509392505050565b600082601f83011261148557611484611369565b5b813561149584826020860161142e565b91505092915050565b6000806000606084860312156114b7576114b6610f8d565b5b600084013567ffffffffffffffff8111156114d5576114d4610f92565b5b6114e186828701611470565b935050602084013567ffffffffffffffff81111561150257611501610f92565b5b61150e86828701611470565b925050604061151f86828701610fb8565b9150509250925092565b600060208201905061153e6000830184611210565b92915050565b60006020820190506115596000830184611275565b92915050565b6000806000806080858703121561157957611578610f8d565b5b600085013567ffffffffffffffff81111561159757611596610f92565b5b6115a387828801611470565b945050602085013567ffffffffffffffff8111156115c4576115c3610f92565b5b6115d087828801611470565b935050604085013567ffffffffffffffff8111156115f1576115f0610f92565b5b6115fd87828801611470565b925050606061160e87828801610fb8565b91505092959194509250565b7f4e487b7100000000000000000000000000000000000000000000000000000000600052601160045260246000fd5b600061165482610f97565b915061165f83610f97565b9250827fffffffffffffffffffffffffffffffffffffffffffffffffffffffffffffffff038211156116945761169361161a565b5b828201905092915050565b7f4e487b7100000000000000000000000000000000000000000000000000000000600052602260045260246000fd5b600060028204905060018216806116e657607f821691505b602082108114156116fa576116f961169f565b5b5091905056fea2646970667358221220e0907b885237f6242abe1fe8ecd0a54d57714a11ed71965abaa16753d51080f364736f6c634300080a0033",
  "immutableReferences": {},
  "source": "pragma solidity ^0.8.0;\r\n\r\n// SPDX-License-Identifier: MIT\r\n\r\ncontract TempContract {\r\n  address public owner;\r\n  uint256 candidateCount;\r\n  uint256 voterCount;\r\n  bool start;\r\n  bool end;\r\n\r\n  // Constructor\r\n  constructor() {\r\n    owner = msg.sender;\r\n    candidateCount = 0;\r\n    voterCount = 0;\r\n    start = false;\r\n    end = false;\r\n  }\r\n\r\n  function getOwner() public view returns (address) {\r\n    return owner;\r\n  }\r\n\r\n  // Only Admin can access\r\n  modifier onlyAdmin() {\r\n    require(msg.sender == owner);\r\n    _;\r\n  }\r\n  struct Candidate {\r\n    string name;\r\n    string party;\r\n    string manifesto;\r\n    uint256 voteCount;\r\n    uint256 constituency;\r\n    uint256 candidateId;\r\n  }\r\n  mapping(uint256 => Candidate) public candidateDetails;\r\n\r\n  // Only admin can add candidate\r\n  function addCandidate(\r\n    string memory _name,\r\n    string memory _party,\r\n    string memory _manifesto,\r\n    uint256 _constituency\r\n  ) public onlyAdmin {\r\n    Candidate memory newCandidate = Candidate({\r\n      name: _name,\r\n      party: _party,\r\n      manifesto: _manifesto,\r\n      voteCount: 0,\r\n      constituency: _constituency,\r\n      candidateId: candidateCount\r\n    });\r\n    candidateDetails[candidateCount] = newCandidate;\r\n    candidateCount += 1;\r\n  }\r\n\r\n  // get total number of candidates\r\n  function getCandidateNumber() public view returns (uint256) {\r\n    return candidateCount;\r\n  }\r\n\r\n  function getCandidateDetails(uint256 num)\r\n    public\r\n    view\r\n    returns (Candidate memory)\r\n  {\r\n    return candidateDetails[num];\r\n  }\r\n\r\n  struct Voter {\r\n    address voterAddress;\r\n    string name;\r\n    string aadhar;\r\n    uint256 constituency;\r\n    bool hasVoted;\r\n    bool isVerified;\r\n  }\r\n  address[] public voters;\r\n  mapping(address => Voter) public voterDetails;\r\n\r\n  // request to be added as voter\r\n  function requestVoter(\r\n    string memory _name,\r\n    string memory _aadhar,\r\n    uint256 _constituency\r\n  ) public {\r\n    Voter memory newVoter = Voter({\r\n      voterAddress: msg.sender,\r\n      name: _name,\r\n      aadhar: _aadhar,\r\n      constituency: _constituency,\r\n      hasVoted: false,\r\n      isVerified: false\r\n    });\r\n    voterDetails[msg.sender] = newVoter;\r\n    voters.push(msg.sender);\r\n    voterCount += 1;\r\n  }\r\n\r\n  // get total number of voters\r\n  function getVoterCount() public view returns (uint256) {\r\n    return voterCount;\r\n  }\r\n\r\n  function verifyVoter(address _address) public onlyAdmin {\r\n    voterDetails[_address].isVerified = true;\r\n  }\r\n\r\n  function vote(uint256 candidateId) public {\r\n    //  require(voterDetails[msg.sender].hasVoted == false);\r\n    //  require(voterDetails[msg.sender].isVerified == true);\r\n    //  require(start == true);\r\n    //  require(end == false);\r\n    candidateDetails[candidateId].voteCount += 1;\r\n    voterDetails[msg.sender].hasVoted = true;\r\n  }\r\n\r\n  function startElection() public onlyAdmin {\r\n    start = true;\r\n    end = false;\r\n  }\r\n\r\n  function endElection() public onlyAdmin {\r\n    end = true;\r\n    start = false;\r\n  }\r\n\r\n  function getStart() public view returns (bool) {\r\n    return start;\r\n  }\r\n\r\n  function getEnd() public view returns (bool) {\r\n    return end;\r\n  }\r\n}\r\n",
  "sourcePath": "D:\\Programming\\blockchain\\blockchain-voting\\src\\contracts\\TempContract.sol",
  "compiler": {
    "name": "solc",
    "version": "0.8.10+commit.fc410830.Emscripten.clang"
  },
  "schemaVersion": "3.4.3",
  "updatedAt": "2021-12-10T06:23:31.837Z",
  "networkType": "ethereum",
  "devdoc": {
    "kind": "dev",
    "methods": {},
    "version": 1
  },
  "userdoc": {
    "kind": "user",
    "methods": {},
    "version": 1
  }
}