{
  "contractName": "TempContract",
  "abi": [
    {
      "inputs": [],
      "stateMutability": "nonpayable",
      "type": "constructor"
    },
    {
      "inputs": [
        {
          "internalType": "uint256",
          "name": "",
          "type": "uint256"
        }
      ],
      "name": "candidateDetails",
      "outputs": [
        {
          "internalType": "string",
          "name": "name",
          "type": "string"
        },
        {
          "internalType": "string",
          "name": "party",
          "type": "string"
        },
        {
          "internalType": "string",
          "name": "manifesto",
          "type": "string"
        },
        {
          "internalType": "uint256",
          "name": "voteCount",
          "type": "uint256"
        },
        {
          "internalType": "uint256",
          "name": "constituency",
          "type": "uint256"
        },
        {
          "internalType": "uint256",
          "name": "candidateId",
          "type": "uint256"
        }
      ],
      "stateMutability": "view",
      "type": "function",
      "constant": true
    },
    {
      "inputs": [],
      "name": "owner",
      "outputs": [
        {
          "internalType": "address",
          "name": "",
          "type": "address"
        }
      ],
      "stateMutability": "view",
      "type": "function",
      "constant": true
    },
    {
      "inputs": [
        {
          "internalType": "address",
          "name": "",
          "type": "address"
        }
      ],
      "name": "voterDetails",
      "outputs": [
        {
          "internalType": "address",
          "name": "voterAddress",
          "type": "address"
        },
        {
          "internalType": "string",
          "name": "name",
          "type": "string"
        },
        {
          "internalType": "string",
          "name": "aadhar",
          "type": "string"
        },
        {
          "internalType": "uint256",
          "name": "constituency",
          "type": "uint256"
        },
        {
          "internalType": "bool",
          "name": "hasVoted",
          "type": "bool"
        },
        {
          "internalType": "bool",
          "name": "isVerified",
          "type": "bool"
        }
      ],
      "stateMutability": "view",
      "type": "function",
      "constant": true
    },
    {
      "inputs": [
        {
          "internalType": "uint256",
          "name": "",
          "type": "uint256"
        }
      ],
      "name": "voters",
      "outputs": [
        {
          "internalType": "address",
          "name": "",
          "type": "address"
        }
      ],
      "stateMutability": "view",
      "type": "function",
      "constant": true
    },
    {
      "inputs": [],
      "name": "getOwner",
      "outputs": [
        {
          "internalType": "address",
          "name": "",
          "type": "address"
        }
      ],
      "stateMutability": "view",
      "type": "function",
      "constant": true
    },
    {
      "inputs": [
        {
          "internalType": "string",
          "name": "_name",
          "type": "string"
        },
        {
          "internalType": "string",
          "name": "_party",
          "type": "string"
        },
        {
          "internalType": "string",
          "name": "_manifesto",
          "type": "string"
        },
        {
          "internalType": "uint256",
          "name": "_constituency",
          "type": "uint256"
        }
      ],
      "name": "addCandidate",
      "outputs": [],
      "stateMutability": "nonpayable",
      "type": "function"
    },
    {
      "inputs": [],
      "name": "getCandidateNumber",
      "outputs": [
        {
          "internalType": "uint256",
          "name": "",
          "type": "uint256"
        }
      ],
      "stateMutability": "view",
      "type": "function",
      "constant": true
    },
    {
      "inputs": [
        {
          "internalType": "uint256",
          "name": "num",
          "type": "uint256"
        }
      ],
      "name": "getCandidateDetails",
      "outputs": [
        {
          "components": [
            {
              "internalType": "string",
              "name": "name",
              "type": "string"
            },
            {
              "internalType": "string",
              "name": "party",
              "type": "string"
            },
            {
              "internalType": "string",
              "name": "manifesto",
              "type": "string"
            },
            {
              "internalType": "uint256",
              "name": "voteCount",
              "type": "uint256"
            },
            {
              "internalType": "uint256",
              "name": "constituency",
              "type": "uint256"
            },
            {
              "internalType": "uint256",
              "name": "candidateId",
              "type": "uint256"
            }
          ],
          "internalType": "struct TempContract.Candidate",
          "name": "",
          "type": "tuple"
        }
      ],
      "stateMutability": "view",
      "type": "function",
      "constant": true
    },
    {
      "inputs": [
        {
          "internalType": "string",
          "name": "_name",
          "type": "string"
        },
        {
          "internalType": "string",
          "name": "_aadhar",
          "type": "string"
        },
        {
          "internalType": "uint256",
          "name": "_constituency",
          "type": "uint256"
        }
      ],
      "name": "requestVoter",
      "outputs": [],
      "stateMutability": "nonpayable",
      "type": "function"
    },
    {
      "inputs": [],
      "name": "getVoterCount",
      "outputs": [
        {
          "internalType": "uint256",
          "name": "",
          "type": "uint256"
        }
      ],
      "stateMutability": "view",
      "type": "function",
      "constant": true
    },
    {
      "inputs": [
        {
          "internalType": "address",
          "name": "_address",
          "type": "address"
        }
      ],
      "name": "verifyVoter",
      "outputs": [],
      "stateMutability": "nonpayable",
      "type": "function"
    },
    {
      "inputs": [
        {
          "internalType": "uint256",
          "name": "candidateId",
          "type": "uint256"
        }
      ],
      "name": "vote",
      "outputs": [],
      "stateMutability": "nonpayable",
      "type": "function"
    },
    {
      "inputs": [],
      "name": "startElection",
      "outputs": [],
      "stateMutability": "nonpayable",
      "type": "function"
    },
    {
      "inputs": [],
      "name": "endElection",
      "outputs": [],
      "stateMutability": "nonpayable",
      "type": "function"
    },
    {
      "inputs": [],
      "name": "getStart",
      "outputs": [
        {
          "internalType": "bool",
          "name": "",
          "type": "bool"
        }
      ],
      "stateMutability": "view",
      "type": "function",
      "constant": true
    },
    {
      "inputs": [],
      "name": "getEnd",
      "outputs": [
        {
          "internalType": "bool",
          "name": "",
          "type": "bool"
        }
      ],
      "stateMutability": "view",
      "type": "function",
      "constant": true
    }
  ],
  "bytecode": "0x608060405234801561001057600080fd5b50336000806101000a81548173ffffffffffffffffffffffffffffffffffffffff021916908373ffffffffffffffffffffffffffffffffffffffff160217905550600060018190555060006002819055506000600360006101000a81548160ff0219169083151502179055506000600360016101000a81548160ff0219169083151502179055506116d0806100a66000396000f3fe608060405234801561001057600080fd5b50600436106101005760003560e01c806362d73eb8116100975780639f05a36d116100665780639f05a36d1461027f578063c5292c671461029d578063d6aadfba146102bb578063da58c7d9146102d757610100565b806362d73eb81461021d5780637d9cf19614610227578063893d20e8146102435780638da5cb5b1461026157610100565b8063364dff25116100d3578063364dff251461018b5780635938750d146101a957806359f78468146101de5780636247e532146101e857610100565b80630121b93f1461010557806309bd09501461012157806311174a291461013d57806327f9fd501461015b575b600080fd5b61011f600480360381019061011a9190611168565b610307565b005b61013b60048036038101906101369190611015565b610393565b005b610145610449565b6040516101529190611413565b60405180910390f35b61017560048036038101906101709190611168565b610453565b60405161018291906113f1565b60405180910390f35b610193610654565b6040516101a09190611413565b60405180910390f35b6101c360048036038101906101be9190611015565b61065e565b6040516101d5969594939291906112f1565b60405180910390f35b6101e66107e4565b005b61020260048036038101906101fd9190611168565b610874565b6040516102149695949392919061137b565b60405180910390f35b610225610a48565b005b610241600480360381019061023c91906110e9565b610ad8565b005b61024b610cb6565b60405161025891906112d6565b60405180910390f35b610269610cdf565b60405161027691906112d6565b60405180910390f35b610287610d03565b6040516102949190611360565b60405180910390f35b6102a5610d1a565b6040516102b29190611360565b60405180910390f35b6102d560048036038101906102d0919061103e565b610d31565b005b6102f160048036038101906102ec9190611168565b610e6b565b6040516102fe91906112d6565b60405180910390f35b600160046000838152602001908152602001600020600301600082825461032e91906114bc565b925050819055506001600660003373ffffffffffffffffffffffffffffffffffffffff1673ffffffffffffffffffffffffffffffffffffffff16815260200190815260200160002060040160006101000a81548160ff02191690831515021790555050565b60008054906101000a900473ffffffffffffffffffffffffffffffffffffffff1673ffffffffffffffffffffffffffffffffffffffff163373ffffffffffffffffffffffffffffffffffffffff16146103eb57600080fd5b6001600660008373ffffffffffffffffffffffffffffffffffffffff1673ffffffffffffffffffffffffffffffffffffffff16815260200190815260200160002060040160016101000a81548160ff02191690831515021790555050565b6000600254905090565b61045b610eaa565b600460008381526020019081526020016000206040518060c00160405290816000820180546104899061159c565b80601f01602080910402602001604051908101604052809291908181526020018280546104b59061159c565b80156105025780601f106104d757610100808354040283529160200191610502565b820191906000526020600020905b8154815290600101906020018083116104e557829003601f168201915b5050505050815260200160018201805461051b9061159c565b80601f01602080910402602001604051908101604052809291908181526020018280546105479061159c565b80156105945780601f1061056957610100808354040283529160200191610594565b820191906000526020600020905b81548152906001019060200180831161057757829003601f168201915b505050505081526020016002820180546105ad9061159c565b80601f01602080910402602001604051908101604052809291908181526020018280546105d99061159c565b80156106265780601f106105fb57610100808354040283529160200191610626565b820191906000526020600020905b81548152906001019060200180831161060957829003601f168201915b5050505050815260200160038201548152602001600482015481526020016005820154815250509050919050565b6000600154905090565b60066020528060005260406000206000915090508060000160009054906101000a900473ffffffffffffffffffffffffffffffffffffffff16908060010180546106a79061159c565b80601f01602080910402602001604051908101604052809291908181526020018280546106d39061159c565b80156107205780601f106106f557610100808354040283529160200191610720565b820191906000526020600020905b81548152906001019060200180831161070357829003601f168201915b5050505050908060020180546107359061159c565b80601f01602080910402602001604051908101604052809291908181526020018280546107619061159c565b80156107ae5780601f10610783576101008083540402835291602001916107ae565b820191906000526020600020905b81548152906001019060200180831161079157829003601f168201915b5050505050908060030154908060040160009054906101000a900460ff16908060040160019054906101000a900460ff16905086565b60008054906101000a900473ffffffffffffffffffffffffffffffffffffffff1673ffffffffffffffffffffffffffffffffffffffff163373ffffffffffffffffffffffffffffffffffffffff161461083c57600080fd5b6001600360016101000a81548160ff0219169083151502179055506000600360006101000a81548160ff021916908315150217905550565b60046020528060005260406000206000915090508060000180546108979061159c565b80601f01602080910402602001604051908101604052809291908181526020018280546108c39061159c565b80156109105780601f106108e557610100808354040283529160200191610910565b820191906000526020600020905b8154815290600101906020018083116108f357829003601f168201915b5050505050908060010180546109259061159c565b80601f01602080910402602001604051908101604052809291908181526020018280546109519061159c565b801561099e5780601f106109735761010080835404028352916020019161099e565b820191906000526020600020905b81548152906001019060200180831161098157829003601f168201915b5050505050908060020180546109b39061159c565b80601f01602080910402602001604051908101604052809291908181526020018280546109df9061159c565b8015610a2c5780601f10610a0157610100808354040283529160200191610a2c565b820191906000526020600020905b815481529060010190602001808311610a0f57829003601f168201915b5050505050908060030154908060040154908060050154905086565b60008054906101000a900473ffffffffffffffffffffffffffffffffffffffff1673ffffffffffffffffffffffffffffffffffffffff163373ffffffffffffffffffffffffffffffffffffffff1614610aa057600080fd5b6001600360006101000a81548160ff0219169083151502179055506000600360016101000a81548160ff021916908315150217905550565b60006040518060c001604052803373ffffffffffffffffffffffffffffffffffffffff16815260200185815260200184815260200183815260200160001515815260200160001515815250905080600660003373ffffffffffffffffffffffffffffffffffffffff1673ffffffffffffffffffffffffffffffffffffffff16815260200190815260200160002060008201518160000160006101000a81548173ffffffffffffffffffffffffffffffffffffffff021916908373ffffffffffffffffffffffffffffffffffffffff1602179055506020820151816001019080519060200190610bc8929190610ee0565b506040820151816002019080519060200190610be5929190610ee0565b506060820151816003015560808201518160040160006101000a81548160ff02191690831515021790555060a08201518160040160016101000a81548160ff0219169083151502179055509050506005339080600181540180825580915050600190039060005260206000200160009091909190916101000a81548173ffffffffffffffffffffffffffffffffffffffff021916908373ffffffffffffffffffffffffffffffffffffffff160217905550600160026000828254610ca991906114bc565b9250508190555050505050565b60008060009054906101000a900473ffffffffffffffffffffffffffffffffffffffff16905090565b60008054906101000a900473ffffffffffffffffffffffffffffffffffffffff1681565b6000600360019054906101000a900460ff16905090565b6000600360009054906101000a900460ff16905090565b60008054906101000a900473ffffffffffffffffffffffffffffffffffffffff1673ffffffffffffffffffffffffffffffffffffffff163373ffffffffffffffffffffffffffffffffffffffff1614610d8957600080fd5b60006040518060c00160405280868152602001858152602001848152602001600081526020018381526020016001548152509050806004600060015481526020019081526020016000206000820151816000019080519060200190610def929190610ee0565b506020820151816001019080519060200190610e0c929190610ee0565b506040820151816002019080519060200190610e29929190610ee0565b50606082015181600301556080820151816004015560a082015181600501559050506001806000828254610e5d91906114bc565b925050819055505050505050565b60058181548110610e7b57600080fd5b906000526020600020016000915054906101000a900473ffffffffffffffffffffffffffffffffffffffff1681565b6040518060c001604052806060815260200160608152602001606081526020016000815260200160008152602001600081525090565b828054610eec9061159c565b90600052602060002090601f016020900481019282610f0e5760008555610f55565b82601f10610f2757805160ff1916838001178555610f55565b82800160010185558215610f55579182015b82811115610f54578251825591602001919060010190610f39565b5b509050610f629190610f66565b5090565b5b80821115610f7f576000816000905550600101610f67565b5090565b6000610f96610f918461145f565b61142e565b905082815260208101848484011115610fae57600080fd5b610fb984828561155a565b509392505050565b600081359050610fd08161166c565b92915050565b600082601f830112610fe757600080fd5b8135610ff7848260208601610f83565b91505092915050565b60008135905061100f81611683565b92915050565b60006020828403121561102757600080fd5b600061103584828501610fc1565b91505092915050565b6000806000806080858703121561105457600080fd5b600085013567ffffffffffffffff81111561106e57600080fd5b61107a87828801610fd6565b945050602085013567ffffffffffffffff81111561109757600080fd5b6110a387828801610fd6565b935050604085013567ffffffffffffffff8111156110c057600080fd5b6110cc87828801610fd6565b92505060606110dd87828801611000565b91505092959194509250565b6000806000606084860312156110fe57600080fd5b600084013567ffffffffffffffff81111561111857600080fd5b61112486828701610fd6565b935050602084013567ffffffffffffffff81111561114157600080fd5b61114d86828701610fd6565b925050604061115e86828701611000565b9150509250925092565b60006020828403121561117a57600080fd5b600061118884828501611000565b91505092915050565b61119a81611512565b82525050565b6111a981611524565b82525050565b60006111ba8261148f565b6111c4818561149a565b93506111d4818560208601611569565b6111dd8161165b565b840191505092915050565b60006111f38261148f565b6111fd81856114ab565b935061120d818560208601611569565b6112168161165b565b840191505092915050565b600060c083016000830151848203600086015261123e82826111af565b9150506020830151848203602086015261125882826111af565b9150506040830151848203604086015261127282826111af565b915050606083015161128760608601826112b8565b50608083015161129a60808601826112b8565b5060a08301516112ad60a08601826112b8565b508091505092915050565b6112c181611550565b82525050565b6112d081611550565b82525050565b60006020820190506112eb6000830184611191565b92915050565b600060c0820190506113066000830189611191565b818103602083015261131881886111e8565b9050818103604083015261132c81876111e8565b905061133b60608301866112c7565b61134860808301856111a0565b61135560a08301846111a0565b979650505050505050565b600060208201905061137560008301846111a0565b92915050565b600060c082019050818103600083015261139581896111e8565b905081810360208301526113a981886111e8565b905081810360408301526113bd81876111e8565b90506113cc60608301866112c7565b6113d960808301856112c7565b6113e660a08301846112c7565b979650505050505050565b6000602082019050818103600083015261140b8184611221565b905092915050565b600060208201905061142860008301846112c7565b92915050565b6000604051905081810181811067ffffffffffffffff821117156114555761145461162c565b5b8060405250919050565b600067ffffffffffffffff82111561147a5761147961162c565b5b601f19601f8301169050602081019050919050565b600081519050919050565b600082825260208201905092915050565b600082825260208201905092915050565b60006114c782611550565b91506114d283611550565b9250827fffffffffffffffffffffffffffffffffffffffffffffffffffffffffffffffff03821115611507576115066115ce565b5b828201905092915050565b600061151d82611530565b9050919050565b60008115159050919050565b600073ffffffffffffffffffffffffffffffffffffffff82169050919050565b6000819050919050565b82818337600083830152505050565b60005b8381101561158757808201518184015260208101905061156c565b83811115611596576000848401525b50505050565b600060028204905060018216806115b457607f821691505b602082108114156115c8576115c76115fd565b5b50919050565b7f4e487b7100000000000000000000000000000000000000000000000000000000600052601160045260246000fd5b7f4e487b7100000000000000000000000000000000000000000000000000000000600052602260045260246000fd5b7f4e487b7100000000000000000000000000000000000000000000000000000000600052604160045260246000fd5b6000601f19601f8301169050919050565b61167581611512565b811461168057600080fd5b50565b61168c81611550565b811461169757600080fd5b5056fea264697066735822122070e102df2c77e425be666409a8a92fbfd6f2bf98567670ada4f451696d13cdb264736f6c63430008000033",
  "immutableReferences": {},
  "source": "pragma solidity 0.8.0;\n\n\n// SPDX-License-Identifier: MIT\n\ncontract TempContract {\n  address public owner;\n  uint256 candidateCount;\n  uint256 voterCount;\n  bool start;\n  bool end;\n\n  // Constructor\n  constructor() {\n    owner = msg.sender;\n    candidateCount = 0;\n    voterCount = 0;\n    start = false;\n    end = false;\n  }\n\n  function getOwner() public view returns (address) {\n    return owner;\n  }\n\n  // Only Admin can access\n  modifier onlyAdmin() {\n    require(msg.sender == owner);\n    _;\n  }\n  struct Candidate {\n    string name;\n    string party;\n    string manifesto;\n    uint256 voteCount;\n    uint256 constituency;\n    uint256 candidateId;\n  }\n  mapping(uint256 => Candidate) public candidateDetails;\n\n  // Only admin can add candidate\n  function addCandidate(\n    string memory _name,\n    string memory _party,\n    string memory _manifesto,\n    uint256 _constituency\n  ) public onlyAdmin {\n    Candidate memory newCandidate = Candidate({\n      name: _name,\n      party: _party,\n      manifesto: _manifesto,\n      voteCount: 0,\n      constituency: _constituency,\n      candidateId: candidateCount\n    });\n    candidateDetails[candidateCount] = newCandidate;\n    candidateCount += 1;\n  }\n\n  // get total number of candidates\n  function getCandidateNumber() public view returns (uint256) {\n    return candidateCount;\n  }\n\n  function getCandidateDetails(uint256 num)\n    public\n    view\n    returns (Candidate memory)\n  {\n    return candidateDetails[num];\n  }\n\n  struct Voter {\n    address voterAddress;\n    string name;\n    string aadhar;\n    uint256 constituency;\n    bool hasVoted;\n    bool isVerified;\n  }\n  address[] public voters;\n  mapping(address => Voter) public voterDetails;\n\n  // request to be added as voter\n  function requestVoter(\n    string memory _name,\n    string memory _aadhar,\n    uint256 _constituency\n  ) public {\n    Voter memory newVoter = Voter({\n      voterAddress: msg.sender,\n      name: _name,\n      aadhar: _aadhar,\n      constituency: _constituency,\n      hasVoted: false,\n      isVerified: false\n    });\n    voterDetails[msg.sender] = newVoter;\n    voters.push(msg.sender);\n    voterCount += 1;\n  }\n\n  // get total number of voters\n  function getVoterCount() public view returns (uint256) {\n    return voterCount;\n  }\n\n  function verifyVoter(address _address) public onlyAdmin {\n    voterDetails[_address].isVerified = true;\n  }\n\n  function vote(uint256 candidateId) public {\n    //  require(voterDetails[msg.sender].hasVoted == false);\n    //  require(voterDetails[msg.sender].isVerified == true);\n    //  require(start == true);\n    //  require(end == false);\n    candidateDetails[candidateId].voteCount += 1;\n    voterDetails[msg.sender].hasVoted = true;\n  }\n\n  function startElection() public onlyAdmin {\n    start = true;\n    end = false;\n  }\n\n  function endElection() public onlyAdmin {\n    end = true;\n    start = false;\n  }\n\n  function getStart() public view returns (bool) {\n    return start;\n  }\n\n  function getEnd() public view returns (bool) {\n    return end;\n  }\n}\n",
  "sourcePath": "D:\\my programs\\blockchain-voting-main\\blockchain-voting-main\\src\\contracts\\TempContract.sol",
  "compiler": {
    "name": "solc",
    "version": "0.8.0+commit.c7dfd78e.Emscripten.clang"
  },
  "schemaVersion": "3.4.16",
  "updatedAt": "2024-05-10T12:27:48.662Z",
  "networkType": "ethereum",
  "devdoc": {
    "kind": "dev",
    "methods": {},
    "version": 1
  },
  "userdoc": {
    "kind": "user",
    "methods": {},
    "version": 1
  }
}